{
  "contractName": "Scholarship",
  "abi": [
    {
      "inputs": [],
      "payable": false,
      "stateMutability": "nonpayable",
      "type": "constructor"
    },
    {
      "constant": true,
      "inputs": [],
      "name": "AccountDepartment",
      "outputs": [
        {
          "internalType": "address payable",
          "name": "",
          "type": "address"
        }
      ],
      "payable": false,
      "stateMutability": "view",
      "type": "function"
    },
    {
      "constant": true,
      "inputs": [],
      "name": "ClassCordinator",
      "outputs": [
        {
          "internalType": "address",
          "name": "",
          "type": "address"
        }
      ],
      "payable": false,
      "stateMutability": "view",
      "type": "function"
    },
    {
      "constant": true,
      "inputs": [],
      "name": "ExaminationCell",
      "outputs": [
        {
          "internalType": "address",
          "name": "",
          "type": "address"
        }
      ],
      "payable": false,
      "stateMutability": "view",
      "type": "function"
    },
    {
      "constant": true,
      "inputs": [],
      "name": "HOD",
      "outputs": [
        {
          "internalType": "address",
          "name": "",
          "type": "address"
        }
      ],
      "payable": false,
      "stateMutability": "view",
      "type": "function"
    },
    {
      "constant": true,
      "inputs": [],
      "name": "RecordsCount",
      "outputs": [
        {
          "internalType": "uint256",
          "name": "",
          "type": "uint256"
        }
      ],
      "payable": false,
      "stateMutability": "view",
      "type": "function"
    },
    {
      "constant": true,
      "inputs": [
        {
          "internalType": "uint256",
          "name": "",
          "type": "uint256"
        }
      ],
      "name": "checkForApply",
      "outputs": [
        {
          "internalType": "bool",
          "name": "",
          "type": "bool"
        }
      ],
      "payable": false,
      "stateMutability": "view",
      "type": "function"
    },
    {
      "constant": true,
      "inputs": [
        {
          "internalType": "address",
          "name": "",
          "type": "address"
        }
      ],
      "name": "records",
      "outputs": [
        {
          "internalType": "uint256",
          "name": "UniversityRollno",
          "type": "uint256"
        },
        {
          "internalType": "uint256",
          "name": "ClassRollno",
          "type": "uint256"
        },
        {
          "internalType": "uint256",
          "name": "signatureCount",
          "type": "uint256"
        },
        {
          "internalType": "uint256",
          "name": "Credits",
          "type": "uint256"
        },
        {
          "internalType": "string",
          "name": "StudentName",
          "type": "string"
        },
        {
          "internalType": "string",
          "name": "SGPA",
          "type": "string"
        },
        {
          "internalType": "string",
          "name": "Course",
          "type": "string"
        },
        {
          "internalType": "string",
          "name": "Branch",
          "type": "string"
        },
        {
          "internalType": "address payable",
          "name": "Addr",
          "type": "address"
        },
        {
          "internalType": "bool",
          "name": "isApplied",
          "type": "bool"
        },
        {
          "internalType": "bool",
          "name": "AmountPayed",
          "type": "bool"
        }
      ],
      "payable": false,
      "stateMutability": "view",
      "type": "function"
    },
    {
      "constant": true,
      "inputs": [
        {
          "internalType": "uint256",
          "name": "",
          "type": "uint256"
        }
      ],
      "name": "recordsArr",
      "outputs": [
        {
          "internalType": "address",
          "name": "",
          "type": "address"
        }
      ],
      "payable": false,
      "stateMutability": "view",
      "type": "function"
    },
    {
      "constant": false,
      "inputs": [
        {
          "internalType": "uint256",
          "name": "_UniversityRollno",
          "type": "uint256"
        },
        {
          "internalType": "uint256",
          "name": "_ClassRollno",
          "type": "uint256"
        },
        {
          "internalType": "uint256",
          "name": "_Credits",
          "type": "uint256"
        },
        {
          "internalType": "string",
          "name": "_StudentName",
          "type": "string"
        },
        {
          "internalType": "string",
          "name": "_SGPA",
          "type": "string"
        },
        {
          "internalType": "string",
          "name": "_Course",
          "type": "string"
        },
        {
          "internalType": "string",
          "name": "_Branch",
          "type": "string"
        }
      ],
      "name": "newRecord",
      "outputs": [],
      "payable": false,
      "stateMutability": "nonpayable",
      "type": "function"
    },
    {
      "constant": false,
      "inputs": [
        {
          "internalType": "address",
          "name": "_address",
          "type": "address"
        }
      ],
      "name": "signRecord",
      "outputs": [],
      "payable": false,
      "stateMutability": "nonpayable",
      "type": "function"
    },
    {
      "constant": false,
      "inputs": [
        {
          "internalType": "address",
          "name": "_address",
          "type": "address"
        }
      ],
      "name": "payAmount",
      "outputs": [],
      "payable": true,
      "stateMutability": "payable",
      "type": "function"
    }
  ],
  "bytecode": "0x608060405234801561001057600080fd5b50336000806101000a81548173ffffffffffffffffffffffffffffffffffffffff021916908373ffffffffffffffffffffffffffffffffffffffff1602179055507332072e1111a838879a37b15209b3c77f6531bcda600160006101000a81548173ffffffffffffffffffffffffffffffffffffffff021916908373ffffffffffffffffffffffffffffffffffffffff16021790555073d0e4b87849f7dbd22068b97f28bacf465809649a600260006101000a81548173ffffffffffffffffffffffffffffffffffffffff021916908373ffffffffffffffffffffffffffffffffffffffff16021790555073583dc8754d3e41495a2317de73b1e065d512192f600360006101000a81548173ffffffffffffffffffffffffffffffffffffffff021916908373ffffffffffffffffffffffffffffffffffffffff1602179055506115438061015f6000396000f3fe60806040526004361061009c5760003560e01c8063744bcaaf11610064578063744bcaaf146104625780637a6f4476146104b95780637ffe85001461050c578063b2e0e21514610563578063dc668bc11461080e578063fe29374b146108655761009c565b806325a2048a146100a1578063469e9067146100f85780634f3abdaf1461036b578063549b39fc146103bc5780636c7a2e4f14610437575b600080fd5b3480156100ad57600080fd5b506100b66108a9565b604051808273ffffffffffffffffffffffffffffffffffffffff1673ffffffffffffffffffffffffffffffffffffffff16815260200191505060405180910390f35b34801561010457600080fd5b506101476004803603602081101561011b57600080fd5b81019080803573ffffffffffffffffffffffffffffffffffffffff1690602001909291905050506108cf565b604051808c81526020018b81526020018a8152602001898152602001806020018060200180602001806020018873ffffffffffffffffffffffffffffffffffffffff1673ffffffffffffffffffffffffffffffffffffffff168152602001871515151581526020018615151515815260200185810385528c818151815260200191508051906020019080838360005b838110156101f15780820151818401526020810190506101d6565b50505050905090810190601f16801561021e5780820380516001836020036101000a031916815260200191505b5085810384528b818151815260200191508051906020019080838360005b8381101561025757808201518184015260208101905061023c565b50505050905090810190601f1680156102845780820380516001836020036101000a031916815260200191505b5085810383528a818151815260200191508051906020019080838360005b838110156102bd5780820151818401526020810190506102a2565b50505050905090810190601f1680156102ea5780820380516001836020036101000a031916815260200191505b50858103825289818151815260200191508051906020019080838360005b83811015610323578082015181840152602081019050610308565b50505050905090810190601f1680156103505780820380516001836020036101000a031916815260200191505b509f5050505050505050505050505050505060405180910390f35b34801561037757600080fd5b506103ba6004803603602081101561038e57600080fd5b81019080803573ffffffffffffffffffffffffffffffffffffffff169060200190929190505050610bc3565b005b3480156103c857600080fd5b506103f5600480360360208110156103df57600080fd5b8101908080359060200190929190505050610e80565b604051808273ffffffffffffffffffffffffffffffffffffffff1673ffffffffffffffffffffffffffffffffffffffff16815260200191505060405180910390f35b34801561044357600080fd5b5061044c610ebc565b6040518082815260200191505060405180910390f35b34801561046e57600080fd5b50610477610ec2565b604051808273ffffffffffffffffffffffffffffffffffffffff1673ffffffffffffffffffffffffffffffffffffffff16815260200191505060405180910390f35b3480156104c557600080fd5b506104f2600480360360208110156104dc57600080fd5b8101908080359060200190929190505050610ee7565b604051808215151515815260200191505060405180910390f35b34801561051857600080fd5b50610521610f07565b604051808273ffffffffffffffffffffffffffffffffffffffff1673ffffffffffffffffffffffffffffffffffffffff16815260200191505060405180910390f35b34801561056f57600080fd5b5061080c600480360360e081101561058657600080fd5b81019080803590602001909291908035906020019092919080359060200190929190803590602001906401000000008111156105c157600080fd5b8201836020820111156105d357600080fd5b803590602001918460018302840111640100000000831117156105f557600080fd5b91908080601f016020809104026020016040519081016040528093929190818152602001838380828437600081840152601f19601f8201169050808301925050505050505091929192908035906020019064010000000081111561065857600080fd5b82018360208201111561066a57600080fd5b8035906020019184600183028401116401000000008311171561068c57600080fd5b91908080601f016020809104026020016040519081016040528093929190818152602001838380828437600081840152601f19601f820116905080830192505050505050509192919290803590602001906401000000008111156106ef57600080fd5b82018360208201111561070157600080fd5b8035906020019184600183028401116401000000008311171561072357600080fd5b91908080601f016020809104026020016040519081016040528093929190818152602001838380828437600081840152601f19601f8201169050808301925050505050505091929192908035906020019064010000000081111561078657600080fd5b82018360208201111561079857600080fd5b803590602001918460018302840111640100000000831117156107ba57600080fd5b91908080601f016020809104026020016040519081016040528093929190818152602001838380828437600081840152601f19601f820116905080830192505050505050509192919290505050610f2d565b005b34801561081a57600080fd5b506108236112ed565b604051808273ffffffffffffffffffffffffffffffffffffffff1673ffffffffffffffffffffffffffffffffffffffff16815260200191505060405180910390f35b6108a76004803603602081101561087b57600080fd5b81019080803573ffffffffffffffffffffffffffffffffffffffff169060200190929190505050611313565b005b600360009054906101000a900473ffffffffffffffffffffffffffffffffffffffff1681565b6006602052806000526040600020600091509050806000015490806001015490806002015490806003015490806004018054600181600116156101000203166002900480601f0160208091040260200160405190810160405280929190818152602001828054600181600116156101000203166002900480156109935780601f1061096857610100808354040283529160200191610993565b820191906000526020600020905b81548152906001019060200180831161097657829003601f168201915b505050505090806005018054600181600116156101000203166002900480601f016020809104026020016040519081016040528092919081815260200182805460018160011615610100020316600290048015610a315780601f10610a0657610100808354040283529160200191610a31565b820191906000526020600020905b815481529060010190602001808311610a1457829003601f168201915b505050505090806006018054600181600116156101000203166002900480601f016020809104026020016040519081016040528092919081815260200182805460018160011615610100020316600290048015610acf5780601f10610aa457610100808354040283529160200191610acf565b820191906000526020600020905b815481529060010190602001808311610ab257829003601f168201915b505050505090806007018054600181600116156101000203166002900480601f016020809104026020016040519081016040528092919081815260200182805460018160011615610100020316600290048015610b6d5780601f10610b4257610100808354040283529160200191610b6d565b820191906000526020600020905b815481529060010190602001808311610b5057829003601f168201915b5050505050908060080160009054906101000a900473ffffffffffffffffffffffffffffffffffffffff16908060080160149054906101000a900460ff16908060080160159054906101000a900460ff1690508b565b6000809054906101000a900473ffffffffffffffffffffffffffffffffffffffff1673ffffffffffffffffffffffffffffffffffffffff163373ffffffffffffffffffffffffffffffffffffffff161480610c6b5750600160009054906101000a900473ffffffffffffffffffffffffffffffffffffffff1673ffffffffffffffffffffffffffffffffffffffff163373ffffffffffffffffffffffffffffffffffffffff16145b80610cc35750600260009054906101000a900473ffffffffffffffffffffffffffffffffffffffff1673ffffffffffffffffffffffffffffffffffffffff163373ffffffffffffffffffffffffffffffffffffffff16145b610ccc57600080fd5b6000600660008373ffffffffffffffffffffffffffffffffffffffff1673ffffffffffffffffffffffffffffffffffffffff16815260200190815260200160002090508060080160009054906101000a900473ffffffffffffffffffffffffffffffffffffffff1673ffffffffffffffffffffffffffffffffffffffff163373ffffffffffffffffffffffffffffffffffffffff161415610d6c57600080fd5b8060080160149054906101000a900460ff16610d8757600080fd5b600460008260000154815260200190815260200160002060009054906101000a900460ff16610db557600080fd5b8060090160003373ffffffffffffffffffffffffffffffffffffffff1673ffffffffffffffffffffffffffffffffffffffff16815260200190815260200160002060009054906101000a900460ff1615610e0e57600080fd5b60018160090160003373ffffffffffffffffffffffffffffffffffffffff1673ffffffffffffffffffffffffffffffffffffffff16815260200190815260200160002060006101000a81548160ff02191690831515021790555080600201600081548092919060010191905055505050565b60078181548110610e8d57fe5b906000526020600020016000915054906101000a900473ffffffffffffffffffffffffffffffffffffffff1681565b60055481565b6000809054906101000a900473ffffffffffffffffffffffffffffffffffffffff1681565b60046020528060005260406000206000915054906101000a900460ff1681565b600160009054906101000a900473ffffffffffffffffffffffffffffffffffffffff1681565b6000600660003373ffffffffffffffffffffffffffffffffffffffff1673ffffffffffffffffffffffffffffffffffffffff16815260200190815260200160002090506000809054906101000a900473ffffffffffffffffffffffffffffffffffffffff1673ffffffffffffffffffffffffffffffffffffffff163373ffffffffffffffffffffffffffffffffffffffff161415610fca57600080fd5b600160009054906101000a900473ffffffffffffffffffffffffffffffffffffffff1673ffffffffffffffffffffffffffffffffffffffff163373ffffffffffffffffffffffffffffffffffffffff16141561102557600080fd5b600260009054906101000a900473ffffffffffffffffffffffffffffffffffffffff1673ffffffffffffffffffffffffffffffffffffffff163373ffffffffffffffffffffffffffffffffffffffff16141561108057600080fd5b600360009054906101000a900473ffffffffffffffffffffffffffffffffffffffff1673ffffffffffffffffffffffffffffffffffffffff163373ffffffffffffffffffffffffffffffffffffffff1614156110db57600080fd5b6004600089815260200190815260200160002060009054906101000a900460ff161561110657600080fd5b600660003373ffffffffffffffffffffffffffffffffffffffff1673ffffffffffffffffffffffffffffffffffffffff16815260200190815260200160002060080160149054906101000a900460ff161561116057600080fd5b87816000018190555086816001018190555085816003018190555084816004019080519060200190611193929190611469565b50838160050190805190602001906111ac929190611469565b50828160060190805190602001906111c5929190611469565b50818160070190805190602001906111de929190611469565b50338160080160006101000a81548173ffffffffffffffffffffffffffffffffffffffff021916908373ffffffffffffffffffffffffffffffffffffffff16021790555060018160080160146101000a81548160ff0219169083151502179055506001600460008a815260200190815260200160002060006101000a81548160ff02191690831515021790555060073390806001815401808255809150509060018203906000526020600020016000909192909190916101000a81548173ffffffffffffffffffffffffffffffffffffffff021916908373ffffffffffffffffffffffffffffffffffffffff160217905550506005600081548092919060010191905055505050505050505050565b600260009054906101000a900473ffffffffffffffffffffffffffffffffffffffff1681565b6000600660008373ffffffffffffffffffffffffffffffffffffffff1673ffffffffffffffffffffffffffffffffffffffff1681526020019081526020016000209050600360009054906101000a900473ffffffffffffffffffffffffffffffffffffffff1673ffffffffffffffffffffffffffffffffffffffff163373ffffffffffffffffffffffffffffffffffffffff16146113b057600080fd5b8060080160159054906101000a900460ff16156113cc57600080fd5b60038160020154146113dd57600080fd5b8060080160009054906101000a900473ffffffffffffffffffffffffffffffffffffffff1673ffffffffffffffffffffffffffffffffffffffff166108fc349081150290604051600060405180830381858888f19350505050158015611447573d6000803e3d6000fd5b5060018160080160156101000a81548160ff0219169083151502179055505050565b828054600181600116156101000203166002900490600052602060002090601f016020900481019282601f106114aa57805160ff19168380011785556114d8565b828001600101855582156114d8579182015b828111156114d75782518255916020019190600101906114bc565b5b5090506114e591906114e9565b5090565b61150b91905b808211156115075760008160009055506001016114ef565b5090565b9056fea265627a7a72315820442a21a3a148c222f3020a96d9c569631c272e98960fcf273c4c43a272ba9fda64736f6c63430005100032",
  "source": "pragma solidity ^0.5.16;\r\n\r\ncontract Scholarship{\r\n    address public ClassCordinator;\r\n    address public HOD;\r\n    address public ExaminationCell;\r\n    address payable public  AccountDepartment;\r\n\r\n    struct Record {\r\n        uint256 UniversityRollno;\r\n        uint256 ClassRollno;\r\n        uint256 signatureCount;\r\n        uint256 Credits;\r\n        string StudentName;\r\n        string SGPA;\r\n        string Course;\r\n        string Branch;\r\n        address payable Addr;\r\n        bool isApplied;\r\n        bool AmountPayed;\r\n        //uint256 Scholarship;\r\n        mapping (address => bool) signatures;\r\n    }\r\n    mapping (uint256 => bool) public checkForApply;\r\n    uint public RecordsCount;\r\n\r\n    modifier signOnly {\r\n        require (msg.sender == ClassCordinator || msg.sender == HOD || msg.sender == ExaminationCell);\r\n        _;\r\n    }\r\n\r\n    constructor() public {\r\n        ClassCordinator = msg.sender;\r\n        HOD=0x32072E1111A838879A37B15209b3c77F6531BCdA;\r\n        ExaminationCell=0xd0E4b87849F7DbD22068b97F28bacf465809649a;\r\n        AccountDepartment=0x583DC8754D3e41495a2317De73b1E065D512192f;\r\n    }\r\n\r\n    mapping (address=> Record) public records;\r\n    address[] public recordsArr;\r\n\r\n    function newRecord (uint256 _UniversityRollno,uint256 _ClassRollno, uint256 _Credits, string memory _StudentName, string memory _SGPA, string memory _Course, string memory _Branch) public {\r\n        Record storage _newrecord = records[msg.sender];\r\n        // only allow students not faculty\r\n        require(msg.sender != ClassCordinator);\r\n        require(msg.sender != HOD);\r\n        require(msg.sender != ExaminationCell);\r\n        require(msg.sender != AccountDepartment);\r\n        // Only allows new records to be created\r\n        require(!checkForApply[_UniversityRollno]);\r\n        require(!records[msg.sender].isApplied);\r\n        _newrecord.UniversityRollno=_UniversityRollno;\r\n        _newrecord.ClassRollno=_ClassRollno;\r\n        _newrecord.Credits=_Credits;\r\n        _newrecord.StudentName=_StudentName;\r\n        _newrecord.SGPA=_SGPA;\r\n        _newrecord.Course=_Course;\r\n        _newrecord.Branch=_Branch;\r\n        _newrecord.Addr = msg.sender;\r\n        _newrecord.isApplied=true;\r\n        //_newrecord.Scholarship=0;\r\n        checkForApply[_UniversityRollno]=true;\r\n        recordsArr.push(msg.sender);\r\n        RecordsCount ++;\r\n    }\r\n\r\n    function signRecord(address _address) signOnly public {\r\n        Record storage _OldRecord = records[_address];\r\n        // Checks the aunthenticity of the address signing it\r\n        require(msg.sender != _OldRecord.Addr);\r\n        // is the record exists\r\n        require(_OldRecord.isApplied);\r\n        require(checkForApply[_OldRecord.UniversityRollno]);\r\n        // Doesn't allow the same person to sign twice\r\n        require(!_OldRecord.signatures[msg.sender]);\r\n\r\n        _OldRecord.signatures[msg.sender] = true;\r\n        _OldRecord.signatureCount++;\r\n    }\r\n\r\n    function payAmount(address _address) payable public {\r\n        Record storage _OldRecord = records[_address];\r\n        //check whether amount has payed or not\r\n        require(msg.sender==AccountDepartment);\r\n        require(!_OldRecord.AmountPayed);\r\n        //check whether approved or not\r\n        require(_OldRecord.signatureCount==3);\r\n        address(_OldRecord.Addr).transfer(msg.value);\r\n        _OldRecord.AmountPayed=true;\r\n        //_OldRecord.Scholarship=_OldRecord.Scholarship + 5;\r\n    }\r\n}\r\n",
  "sourcePath": "F:/chain/college block/contracts/Scholarship.sol",
  "compiler": {
    "name": "solc",
    "version": "0.5.16+commit.9c3226ce.Emscripten.clang"
  },
  "schemaVersion": "3.3.4",
  "updatedAt": "2021-05-14T19:04:28.812Z",
  "networkType": "ethereum",
  "devdoc": {
    "methods": {}
  },
  "userdoc": {
    "methods": {}
  }
}